:100000000C94E8080C9415090C9415090C94150926
:100010000C9415090C9415090C9415090C941509E8
:100020000C9415090C9415090C9415090C941509D8
:100030000C944B3F0C9415090C9415090C9415095C
:100040000C9415090C94C22F0C9415090C941509E5
:100050000C9415090C9415090C9415090C941509A8
:100060000C9415090C94223F0C94F83E0C9415093D
:100070000C9415090C9415090C9415090C94150988
:100080000C9415090C9415090C9415090C94150978
:100090000C9415090C9415090C9415090C94150968
:1000A0000C9415090C9415090C9415090C94150958
:1000B0000C9415090C9415090C9415090C94150948
:1000C0000C9415090C9415090C9415090C94150938
:1000D0000C9415090C9415090C9415090C94150928
:1000E0000C9415090C949C1F0C9415260C94BE2E90
:1000F0000C94A92B0C94763A0C941D2F0C94591641
:100100000C94EC310C946D290C9408290C94782EE5
:100110000C947F160C948B2A0C94EE130C941A16E4
:100120000C9493200C940E230C948A1F0C942B3C5B
:100130000C94BC270C9486190C94AC2B0C94BF2EF9
:100140000C946A120C9446310C940D1F0C940C34D0
:100150000C94991A0C94AE3A0C94923A0C94C116E1
:100160000C94CF110C9497320C9425140C94F72115
:100170000C949C310C94532D0C948E1A0C945D1F8E
:100180000C94F5200C94042C0C940D3C0C948F23AF
:100190000C94D71E0C94E21F0C943E370C949328B9
:1001A0000C945D1E0C94D2130C94662F0C94C529EC
:1001B0000C94EC110C94D81D0C942A160C94CE318E
:1001C0000C941C3B0C942F3A0C94E4320C94902227
:1001D0000C9403330C9439290C94AE280C9482149B
:1001E0000C94EF220C9440270C9448210C94D825B1
:1001F0000C94AB290C949F210C9450280C945D37DF
:100200000C9468190C94BD280C940B3C0C940C288D
:100210000C94EC3E0C9475330C9442120C94E42232
:100220000C9407270C94AF220C941C2A0C949F2644
:100230000C9453220C94DB220C941F2C0C94EA1681
:100240000C947C240C9499330C94EE2C0C94F62C86
:100250000C9464160C9427210C9494330C94BC38A1
:100260000C94F12B0C94F6120C941D140C943A1C63
:100270000C941E190C944F140C949D2B0C94DC2E92
:100280000C9478130C945B250C94F12E0C94D51DD2
:10029000040000000004040000000004000000004E
:1002A0000000000400000000000400020000040040
:1002B0000400000407040400000404040000020217
:1002C0000000000204070004070704000404000003
:1002D00004000202040404040400000400040404F2
:1002E00004040404000400020304000404000400E5
:1002F00004000004000400000000000000000102EF
:100300000102F4021D2F0200010000009D2B0300DA
:1003100001000000A92B040001000000AC2B050027
:1003200001000000F12B06010001CB057813070046
:1003300001000000EE1308010001F302D2130900CE
:1003400001000000BE2E0A020101C605DC2E0B03CF
:100350000103F002BF2E0C020102EE02F12E0D028B
:100360000002F40294330E020002B20599330F0327
:100370000003F0020C3410020002EE0268191105AD
:100380000005E9021E1912020002B2058B2A1301B0
:100390000001F3026D2914020002EE02421215025E
:1003A0000002B205CF1116040004E5026A12170517
:1003B0000005E002EC1118010001F30239291908C7
:1003C0000008D802C5291A030003D502AB291B0275
:1003D0000002B20593201C020002EE025D1F1D0404
:1003E0000004A005F5201E010001F3028A1F1F086A
:1003F0000008CD020D1F20020002EE029C1F210406
:100400000003B405251422030002B7051A162303BE
:100410000002B7052A1624040004AE058214250143
:100420000001F3021D1426030003CA024F1427051E
:100430000003C7021F2C28040003C402F62C290362
:100440000002B705042C2A040004AE05532D2B012D
:100450000001F302EE2C2C030003C102DB222D036A
:100460000003B9055D1E2E060006BB02D71E2F0233
:100470000002B205072730050005B60253223104F9
:100480000004C005AF2232020002B20590223304FC
:100490000003B3029F2634050005AE024027350154
:1004A0000001F302EC3136040003A405973237054E
:1004B0000005A902D82538040004AE059C31390393
:1004C0000003CA02CE313A030002B705E4323B030F
:1004D0000002B70575333C060006A30203333D0353
:1004E0000002B705763A3E030002B705923A3F088C
:1004F00000089B02AE3A40060006A3021C3B4105E1
:10050000000596022F3A42010001F302EA16430366
:100510000003F0023A1C44020002B205991A450693
:10052000000690027F1646030003D502C11647015C
:100530000001F3025D3748030003F002BC384902B2
:100540000002B2053E374A030002B7058F234B0471
:100550000004A0059F214C030003D50248214D0152
:100560000001F3020E234E030003F0027C244F022D
:100570000002B205EF22500001000000EC3E5100E5
:100580000500000028292A2B2C2D2E2F50515253C4
:1005900054555657040000020400020402040007E8
:1005A0000400000404020704000002040402040022
:1005B0000000040404040704070400020404040007
:1005C0000404000404010704000402000000000009
:1005D0000000060002026D4003A4056C1F0794058D
:1005E0006B4003A4056A0B029B056940039D0568E7
:1005F0004003A405671C07A705661404A005654011
:1006000003A405641C07A705631704AE05620A026C
:10061000B205614002B705604003B4055F4002B710
:10062000055E4002B7055D1003B9055C1104BC0509
:100630005B1104C0055A0D02C405590B01CB0558C6
:100640004001C605571204C705560B01CB055510CE
:1006500002CC05541503CE05004002D105530E020D
:10066000D305520901D505510600000020002300E2
:10067000260029002C002F00320000010000030199
:10068000060109010F47004400450080013548007C
:100690004400450020010D88008000810080000E8C
:1006A0008A008000810020000F8C008000810008FB
:1006B000000CB300B000B10080033EB400B000B144
:1006C000002003239800900091008000249A00905D
:1006D0000091002000259C009000910008003BA89C
:1006E00000A000A10080003CAA00A000A100200002
:1006F0003DAC00A000A10008005B28012001210101
:1007000080005C2A012001210120005D2C012001D4
:100710002101080078DAB5597B6FDBC811FF2A7B0D
:100720000282F60AC5902891925CE40F5B76EED2C5
:10073000C4892F8A9B024541D0E44A5A98AFE3927C
:100740007EDCC1DFFD6676F6454ACE052D1A201007
:100750007777661FF3F8CDC3BF8F6E3B9167F13D8E
:100760006FA4A84A393A1DEDD2F494FDF5A7F5FA25
:1007700047169ECC4F26EC56945D2B7289B31F6FA3
:10078000D8B91EFEC88293203A0926D368320DC21A
:10079000D1789456459194196CF2FB28C9F32A4DEF
:1007A0005A1E5722932CADBAB27DF32A1D9D2EC737
:1007B0007062DBC2517192DE315885696F7DBEF087
:1007C00008B2CC10D495543FA27CF3AA637597E786
:1007D000715713C3CA31FCDAF1E6C9EE0917B84301
:1007E000EA86CB366E457A2769D43649290BD1C6BD
:1007F000E654264A78BF3E1F2E98E63C6962B9EF60
:10080000DAAC7A2847A7013EADDC8A1DDCE8319FCF
:10081000CD437384AC454C9FA3D3C5CC5195495E61
:10082000ED6251DADBAB6B8F4E676E277D6543411E
:10083000C3D8C9219C585235C99BFE663D19840B0B
:100840004B9C899D68933CAEBA76C0709FE41DC7EF
:1008500071C6B74997B7B19D2892C738EB9AA405DE
:100860000B50F79CBAFD38E8B3ADEADE5E69EFF0F5
:1008700020B2C4FB6C3E5F2C2786B891B13E9B9B97
:100880008F6C6EBF42FB15D9AF85FDE279F264959E
:10089000363A8D9C7445903223F4B99BCE850CB2C8
:1008A00087639A899696A8A8BB5510DA0BC2564E54
:1008B0007F2B4B55F2AA168F3C1F08304BDA24963B
:1008C000E23790D9BE03AF6863149C675892C39413
:1008D00028BD6B87A1DDB47E288E28257D02637339
:1008E0007B6895ECBBA19260E6404B73277878EE6D
:1008F0007063F4AF56DCF3782F767BF5C2D9D2A7BC
:10090000072BDDE5FC505ECCAEC5ED53CD4936BDC1
:1009100093AC671C63D64B7121776F5EFD0DA060B1
:1009200036EBF13E88760F62885369953873D62688
:10093000DBC52AB0EA49ADFDC834BFB3DF22B39F9F
:100940004F651AF74D85A545161F58CFC43B81D773
:10095000B573261CC6DAA833D1984F020445ECA81B
:10096000BA5C726FD3C03DACDDF3A6A8C04FEBA359
:1009700012F5973DA1BA4BB545DA258DB58DE63117
:100980003E7072D6DA49B4BC56149C2CCC414ADB7A
:10099000A03C9C5861FF8CDF7660CF553D3A5D9955
:1009A00011ECB253B64CFA995AB2862780B74DC6AD
:1009B0001B3C0FC0B72130080CC143235A7E408135
:1009C000464B84D3F18817BCD9F1327D8A1135E0CA
:1009D0001230450812EFAB821F60B34C8ADA770001
:1009E0003DB6C8DCC76EB8BA432D7AAE9571237692
:1009F0003BDEE02324FA070253E80E579101EE9400
:100A0000B4DC0A28988F475B01580D2E1D930C59B2
:100A1000DAA46431E3D10EBC59DD1384AC478A06F5
:100A20003447C3AE462D801F8E471AF86209E7C5CA
:100A3000608116D7F19BE41C05033254812173EACF
:100A4000884088084B459589ED530CBAB67B355CD8
:100A5000B914D3E1096E80ABDACB56C4463AECD375
:100A6000E35C9C730D1A132254EC9DF49110860ADA
:100A7000C74046F88BEAE5926C7D1E382E596DDB37
:100A800087A4E13E3BF8A7F5C92C319FC7768A427F
:100A9000DA49DBD2F0F9737C7EC6CB161ECFAAED05
:100AA000160E544E6DE322AC1B785662B4DA0C6716
:100AB000DE4A57674ED3943CEC3BEF9810744626C1
:100AC0003188E8C793065079306050B6D439105B4E
:100AD0004C2DC130FAFF97C65E3863D7E8EF4690D9
:100AE000C1EC8071CFD33B2F6798D93B0C52067B6A
:100AF00083BA023C199EEF85ABC86CD08FA62F49F4
:100B0000255AF4E9874289EC7E83C0FBA2989703BB
:100B1000860331DB130F42D80BF91EFA28442CB19F
:100B200025192D42B3C131D07E610F4F153D4DD0F7
:100B30000082056048E629225AA9433A7E2C1DB35B
:100B400067547EA6300D0DCB2051B0E456FBE02556
:100B500096182393F561543981B17198BD723EF8AE
:100B600015007760C22A4781247CA23F153FA1DC93
:100B7000F03C60002AA4F1DF30C825E1DEB3032297
:100B8000F50295D8D83D7B590E3045C454F2477DC7
:100B90000588BD160C4443F03C2522238F3FC9989D
:100BA000402AE0D45EF28259FED6F98073FE85A613
:100BB000F3E0C35B9DD9D51E40E29406488066EE03
:100BC000C11BB0448EE5183A16425606138B4A8A6A
:100BD0006359CDC1A691BEC7CBEF98811550C2F421
:100BE000ADB813AEFA54C7C34EB8442A951AC51807
:100BF000DB003205269AD6F1A62B47A0222A5A2FCF
:100C0000C55C6643B017908103B6D4894D4FD40AB2
:100C1000F96D6022EC06556B6E9421BAEC110F0051
:100C200093583ABAD64F98785D353A5A93F7AAB1A5
:100C30003512FE580B50899F1BACEC4E8357F8447D
:100C4000003614498EF9B1E703F367938461E97BB9
:100C500076B18EAFCEFE85A915E688E7379BF8FA08
:100C6000DDC70D221694D7D7E7B3F1F57900FFA7BA
:100C7000236FB17D508B1793F1F5052EAC3F7C5A55
:100C8000BF8FDF7EBEFC05DD65A2FE8D4757EB1BE7
:100C9000A04ADA82EF92208C264078FDF58A4E0B2E
:100CA000B0D8F87CB9BE7CF7CFCBF8EBBB8F179FE1
:100CB000BEA2DA029CDC5C7E8649BA056F4492E3F0
:100CC000599770D6259E05ABEFCE3EC4E767371720
:100CD000B80D1DB5F972F665136F6EAE36BFC0CA9A
:100CE000E61257A267CCA83AC8F15415A20A7D9D16
:100CF00039E0A77AC30468C0A6717C7D36199DFED1
:100D00007B325EFE07AE798EDF4BFA5EE337808082
:100D10001A5CE000723135B8C40194C96AF0160754
:100D200073CDFF931AE80D7EC641A837F8070E165B
:100D30009AE7BD3A46F37C5003E479EE4103A4E020
:100D4000AA47319DCD6670E3F12891E164BEC85495
:100D50007AD1E63C9C4C835B78B0E6D2CF53FAC3A1
:100D6000E7614C1268820DA4D2B1C8B4D299328E18
:100D70002D0567AA8BCF72B4F12766D2CC8C007395
:100D80009D94ACAC5A06C6CE103018601C011B53A3
:100D900036CB1EF602BEC9F624ABC17BE02442640A
:100DA000C3DB49AE625B3365DBAA6160067F3763F4
:100DB00021713553F36A4A928B01EB5F5A0C08504C
:100DC00043EDE0425098242D5227FA9A543152E6CE
:100DD000AC892592A2C9537E4FB32A76A8ADE1A66D
:100DE000BC64A6A8B2FC60746B6A06B13A69C0E440
:100DF000186F9AAA51A9B35968388430D9AA96D0E5
:100E0000DB04DE9BB1B6620A29B0C4570E4EFDA0CA
:100E100077146099E999B8160EC539CA7C0C95EE1D
:100E200042A9ACDDCD01195E25293804492ADECC62
:100E30006251DD73731B86F53D7AB45BB6DD005BF2
:100E4000FF13E21FACEBA4D39E3FF32E00026464B9
:100E500076584E99592CDB0D6E048BDEBCCE6DD2CC
:100E6000BDA835E37CDA27001574B57B93A4868092
:100E7000A1E86537DE2E58285C258F68A74B2350E4
:100E80002AD2AF20454F769C41F506B1C8280CB652
:100E9000BC1212AD4942BA997539568FC08CA19BCC
:100EA00069545486CFEF396A02A3F6CB0CFBA4C970
:100EB00094B16B6AAC51AF50FC2A9B61F0D56CF3D6
:100EC000EA81D2A18F60E509A3E7A07B2954990F9D
:100ED00016C0EE69010B617F419435250DD4255272
:100EE0004B25DED44DCF157A5AEBAF9B6A07C22C47
:100EF000E0EA09BE6D0B51176E09C2E6E8B8D89159
:100F0000FBCCF5A3D058D1B3E0181435A8012D19A6
:100F1000CBA48D2538900E7B10790EC12885FD7AE3
:100F2000ED1C0AAF8ED34AE81B1C18C136E085A41D
:100F3000437501A41045579839E31C782BD3B2515F
:100F4000C5236CA6FC566190DFE6DC68476EAB8A71
:100F50006D13F53A7A19D6CA5F7C93429101A16A62
:100F600052516BE98B920772421C965CD5FE37A5F5
:100F7000EC6A8CC59C9C5A2129766CBF266DBACF31
:100F8000AA1D49F1072ADF54CF18AA9AAEBC838D57
:100F90001111A815E9CD4BB70096493E02902101E9
:100FA000E9D08321CA437D2CB57E5D838500AB2AC1
:100FB00073C0B87BD820B9CD0D74D9E75305CD7473
:100FC000F2419DE041257ECA3E01784200BCC57CCD
:100FD000618B9D18F903A525AACD6D715437BF33D8
:100FE0006AAF48AC674B4008329914967109133CBC
:100FF000007FD5D0FC78B67E4F9D30D30B52791A46
:101000004A334F1A0C2798971E4946508564F0D8EA
:1010100059D3084CEE84291844AB83EE13862BC8B1
:101020001866D36518AAE8A707910A7F3488426535
:101030000F3088A2057CCF9E9F55C950035C706A13
:10104000F0EB3AD8CF2725826899F241B5FD1AAD69
:10105000E768DDECAA1B5D93998C8D2A037FBBDBCF
:101060004EF9A3E2DA8A6D85BFB9F0DAF85802BC0E
:10107000C6C8650BF05EBF87B63C564DAD66EE2F19
:10108000083D8EC4ABAE995AD1EF517D7C5534B931
:10109000DC74697BA4105175AB48BD50759470CE5B
:1010A000989A2A0900EAFC8B2F550F5415EDDFBAE8
:1010B000B5E6D01FB13BFD75B0726D3C093E69BB12
:1010C00072CB95EB82F576DE5750D6EE0ECFF09BC5
:1010D0006C209CA96B2CC5C6005CAE4C6312CB2A5D
:1010E00074BD1B8FD43671C8204E90149B504E2077
:1010F0006C985069998094755FE1BB8C6C61C9FFF5
:10110000CF3606EE6EDA13DF7331C4F6A3ED8CFF33
:10111000E966DDB19B4DBC1E98B60373B92E4D55E3
:101120000F2E45FB053AD08EDF065E6201E8828411
:10113000E9581D57CCCCCFA6BF4B37539FC32B06C6
:101140007D06A40B8E95F00776E7B7693C037C1DFE
:10115000CCFA35F39F19EC5CE5F24DAB92EBE594DC
:10116000327BE9BC4C7685FE91BF9233CD5D153C58
:101170002891A9CB0815C26A32C0DCBE228EC250AB
:10118000478194B4838583299C0F1F80253381D0A8
:10119000D42F869D5FA789ADCC8F36C63DCCC2E2E9
:1011A00090BAD88CFE4AD4F9801602E4EBBF0B4308
:1011B000B9783F39994E4F26E066D1EB1D5FDD6E61
:1011C000836C9E8E9EFF00644123DCB70A00000002
:1011D00011241FBECFEFD1E2DEBFCDBF00E00CBFB8
:1011E00014BE0FB6F894A895809160008861809332
:1011F0006000109260000FBE12E0A0E0B2E0E4E5F3
:10120000F0E800E00BBF02C007900D92AA32B107D0
:10121000D9F723E0AAE2B2E001C01D92A839B207D3
:10122000E1F70E94F3300C9428400C940000CF9317
:10123000DF93CDB7DEB769970FB6F894DEBF0FBE68
:10124000CDBF0E94E0306B017C019E012F5F3F4FBC
:101250001901AE01475F5F4F5E874D87809126027F
:10126000882309F4F0C50E94E030C61AD70AE80ABC
:10127000F90AF89480912602882351F08FEF809329
:10128000260278940000F894809126028111F9CF0B
:1012900078940E94E030A7019601260F371F481F5F
:1012A000591F2B8B3C8B4D8B5E8B81E080932602EC
:1012B00080914902882309F43EC0109249028FEFC1
:1012C00089836AE87FE1C1010E94BA2A8C01892BD7
:1012D00091F1D80156968C9182FFF3CF0E94E030B5
:1012E000F894F80137892689422F4B7F468B7894F2
:1012F0009F938F937F936F931F923F9321701F92C1
:101300002F9389811F928F932BE236E03F932F9387
:101310000E9459356DB77EB7645F7F4F0FB6F89462
:101320007EBF0FBE6DBF6AE87FE1C1010E94BA2A8D
:101330008C01892B71F680914A028823F9F0109272
:101340004A028FEF89836CE97FE1C1010E94BA2ACA
:10135000FC01892B99F0958D868D9813F4CFF89424
:10136000858D968D891709F457C678946CE97FE1CD
:10137000C1010E94BA2AFC01892B69F780914C02B5
:101380008823F9F010924C028FEF898307E116E071
:1013900060E972E2C1010E94BA2A009791F0DC0173
:1013A00058962C912F3FA1F7F894FC012685211126
:1013B000F1C4789460E972E2C1010E94BA2A0097F0
:1013C00071F780914E028823D9F110924E028FEF6F
:1013D000898302E116E060E477E2C1010E94BA2A43
:1013E000009771F1DC011E962C911E9723FFF3CF1D
:1013F000F894FC012685277F268778949C01265E39
:101400003F4F3F932F9350968C9186958695869566
:101410001F928F9389811F928F931F930F930E9426
:101420005935EDB7FEB738960FB6F894FEBF0FBE2C
:10143000EDBF60E477E2C1010E94BA2A009791F6FD
:1014400080915902882309F446C0109259028FEF07
:10145000898308E016E06EEC71E3C1010E94BA2AAC
:10146000FC01892BC1F1848D80FFF5CFF894948124
:10147000258136814781548965897689A789B08D10
:10148000F18CE28CD38C848D8E7F848F7894DF9264
:10149000EF92FF92BF93AF937F936F935F934F93BE
:1014A0003F932F939F9389811F928F931F930F9345
:1014B0000E9459352DB73EB7205F3F4F0FB6F894C5
:1014C0003EBF0FBE2DBF6EEC71E3C1010E94BA2A70
:1014D000FC01892B41F6809146028823B9F11092D4
:1014E00046028FEF8B87AE01455F5F4F2A01F2E026
:1014F000DF2EAEE2EA2EB0ECFB2E69E97AE1C20102
:101500000E94BA2A8C01892B09F1D80152968C913C
:1015100082FFF3CF80FF87C1C8010E942E3CF801F3
:10152000D28A148AE982FA82910142E060E08485DD
:1015300095850E942015C8010E948A1B69E97AE1FD
:10154000C2010E94BA2A8C01892BF9F680914502CA
:10155000882309F450C0109245028FEF8B879E01BB
:10156000255F3F4F290161EC76E1C2010E94BA2A52
:101570005C01892B09F43FC0D50159968C9159978C
:1015800080FFF1CFF894F5016480758086809780A4
:10159000818D8E7F818F789458968C91813009F45B
:1015A00099C308F479C3823009F439C38330D9F67A
:1015B000CB8419821A82910142E061E0F5018489AD
:1015C00095890E94201509811A811027012710276B
:1015D000F02FF670EF2E20E030E0B401A301C5013A
:1015E0000E944D1761EC76E1C2010E94BA2A5C01AB
:1015F000892B09F0C1CF80915B028823B1F1109251
:101600005B028FEF8B879E01255F3F4F290152E0E0
:10161000D52E6DE2E62E78E0F72E6EE377E3C20179
:101620000E94BA2A8C01892B01F1D80152968C9123
:1016300082FFF3CF80FFF2C0C8010E942E3CF80168
:10164000D28AE982FA82910142E060E08485958540
:101650000E942015C8010E94E5376EE377E3C201BE
:101660000E94BA2A8C01892B01F780914B028823B2
:1016700009F45EC010924B028FEF8B879E01255FAD
:101680003F4F290177247A9468E471E2C2010E94F5
:10169000BA2A8C01892B09F44BC0D80150968C9141
:1016A00082FFF2CFF894F80184809580A680B780FD
:1016B000F488108A148A789480859185A285B385F0
:1016C000881A990AAA0ABB0AD801FF2091F05296FB
:1016D0008C91F801E80FF11D758A168A178A8D5FC3
:1016E000F801828B8E3208F093C0FA94D801F11081
:1016F000EECF51968C91882309F432C2813009F4DF
:1017000015C3823009F434C4D80152968C9190E00C
:101710008E970CF4B9CF6B85C8010E94792168E4DB
:1017200071E2C2010E94BA2A8C01892B09F0B5CF5F
:1017300080914D02882309F4C3C010924D028FEFAF
:101740008C8730E3632E42E0742E53E2952E6AE6D6
:10175000C62E74E0872EE0E44E2E6FEE72E2CE01CC
:101760000C960E94BA2A7C01892B09F4A9C0F701C2
:10177000868982FFF2CF80FF5BC0C7010E942E3CAA
:10178000D70156967C92569799821A821C96ED91B3
:10179000FC911D97A10162E080810E945F18C982BF
:1017A0008A82D7011C96ED91FC911D97A10162E000
:1017B00080810E945F18C9824A82D7011C96ED91F0
:1017C000FC911D97A10162E080810E945F18BAE33D
:1017D000BB87D7011C96ED91FC911D97810121E0FB
:1017E000AE01455F5F4F61E080810E94D51799820D
:1017F000B8E0BA83D7011C96ED91FC911D97A10129
:1018000062E080810E945F18C7010E943724A5CF43
:101810006B85C8010E947921FA9468CF6B85C80155
:101820000E940438FACE6B85C8010E94A91B65CEC0
:101830005C84F7010789D62CD01AAD2CB12C848991
:1018400095898A159B0508F4C4C2B4E7B98310E0F2
:10185000085E1F4F0E0D1F1DD7011C96ED91FC91C8
:101860001D972D2DA10161E080810E94D517F70100
:101870008789D80ED78A848995898A199B09958B7F
:10188000848B652DC7010E945624D70154968D91F3
:101890009C915597A816B90608F4FCC2F7018689F1
:1018A00081FF5BCFC7010E942E3CD70156968C91D9
:1018B00056978B7F56968C93C7010E9437244DCF45
:1018C000A89580917402882329F080E480936000B9
:1018D0001092740210913503112309F46DC0009128
:1018E0002A0200FD12C0153008F466C0B0907502DF
:1018F000CB2C8BEF8B0D8C3308F4D2C2EEE7CE16D7
:1019000009F43FC4016000932A02412F50E06EE7C2
:1019100070E085E792E00E94F93F009739F00E7F72
:1019200000932A028557924011E0180F01FD0CC068
:10193000902F926090932A028FE795E09F938F9368
:101940000E9459350F900F90B12EDD24DA9480E07B
:10195000EB2CF12C18C090E0402F50E0481B590BA5
:10196000B701680F791F6B587D4F8B589D4F0E94B0
:101970000F4010922602802F9FB7F89420913503D4
:10198000121761F09FBF10913503012F0B1919F742
:101990009FB7F894209135031213F4CF00933503C9
:1019A0009FBFF1E0DF1208C08FE795E09F938F9310
:1019B0000E9459350F900F900E94E0306B017C011E
:1019C0002B893C894D895E89621B730B840B950BB7
:1019D0008090330290903402A0903502B09036028D
:1019E0003FEF831A930AA30AB30A809233029092BC
:1019F0003402A0923502B092360240902F025090ED
:101A000030026090310270903202460E571E681EFE
:101A1000791E40922F0250923002609231027092F1
:101A200032026115710541E08407910508F010C28A
:101A30009B01AC010E94563FDC01CB0181509F4FBE
:101A4000AF4FBF4F892F9A2FAB2FBB2740912B024F
:101A500050912C0260912D0270912E02840F951FDF
:101A6000A61FB71F84179507A607B70718F48FEFAF
:101A70009FEFDC0180932B0290932C02A0932D0208
:101A8000B0932E024091530250915402609155023E
:101A9000709156025C546B437B4F2F2DC416D506B4
:101AA000E606270B27FDDACBBF93AF939F938F9367
:101AB0007F926F925F924F92BF92AF929F928F925E
:101AC00083E596E09F938F930E9459356DB77EB75B
:101AD000625F7F4F0FB6F8947EBF0FBE6DBF8091DF
:101AE000530290915402A0915502B0915602C8162B
:101AF000D906EA06FB0698F480914F0290915002B5
:101B0000A0915102B09152020196A11DB11D809386
:101B10004F0290935002A0935102B0935202C09290
:101B20005302D0925402E0925502F0925602109263
:101B30002B0210922C0210922D0210922E02109263
:101B40002F02109230021092310210923202109243
:101B500033021092340210923502109236027ECB7C
:101B600082E389831A820E94E0306B017C0191013B
:101B700042E061E0F801848595850E9420150E946D
:101B8000E030DC01CB018C199D09AE09BF0981321F
:101B90009340A105B10508F0EFC0998197FD4AC1B6
:101BA000C818D908EA08FB08D80153968C918823F5
:101BB000C1F02FEF280F41E050E002C0440F551F45
:101BC0002A95E2F7052E000C660B770BC40ED51E86
:101BD000E61EF71E04C0F694E794D794C7948A953E
:101BE000D2F7BFEFCB16D104E104F10408F086C1AF
:101BF0002A8130E0220F331F892F90E0982F882709
:101C0000990F822B932BF8012289E20FF11DC58ACF
:101C1000868B978B2D5FD80152962C9375CDCB84F4
:101C200081E089831A821B821C82910143E061E07A
:101C3000848995890E94201569817A818B819C8194
:101C40000E94883FBB27A92F982F872F9C01AD01A9
:101C5000442755272F87388B498B5A8B37E0398398
:101C60001A82910142E061E0D50154968D919C91D8
:101C700055970E9420158A81982F9C7F8F858170AF
:101C8000E92EE82A0F85188929893A89B401A30128
:101C9000C5010E944D1767CCCB8419821A821B8222
:101CA0001C82910144E061E0F501848995890E94DC
:101CB000201569817A818B819C810E94883FF62F53
:101CC000F770EF2E8B019C01B401A301C5010E94A6
:101CD0004D1749CC2B852F873CE039831A821B8214
:101CE0001C82910144E061E0848995890E9420155D
:101CF00069817A818B819C810E94883F6B017C0184
:101D0000BFE0B9831A82910142E061E0F501848964
:101D100095890E942015970186013327CF84EA8098
:101D2000B401A301C5010E944D171DCC8FE7898323
:101D30008EEF8A830E94E0306F87788B898B9A8B35
:101D4000910142E060E0F801848595850E942015AC
:101D50000E94E0306B017C01DC01CB012F853889CA
:101D600049895A89821B930BA40BB50B813293408E
:101D7000A105B10508F4CFC0D80152968C91F801A5
:101D8000E80FF11D758A92E0968B178A8D5FF80136
:101D9000828BBACC318D308F7894AC01415F5F4F2C
:101DA0005F934F931F922F93FC0187891F928F930C
:101DB00089811F928F931F930F930E9459352DB7DE
:101DC0003EB7265F3F4F0FB6F8943EBF0FBE2DBF04
:101DD000DFCAB7016E5E7F4F848595850E941531FD
:101DE0009C01ABEABAEA0E948F3F9695879596953B
:101DF00087959C01220F331F820F931F880F991F15
:101E0000D70155969C938E9354978A159B0508F499
:101E100041CD57960C9119CD2D853E85E217F307DC
:101E200009F0EAC0809590E02A8530E08217930798
:101E300009F413C1D80152968C91F801E80FF11DF5
:101E4000758A93E0A1CFCB8ADC8AED8AFE8A2DCAFF
:101E50006115710550E18507910508F008CE8B01E9
:101E60009C0101501F4F2F4F3F4F5527432F322FBB
:101E7000212F0E94563FDC01CB0140912B02509153
:101E80002C0260912D0270912E02840F951FA61FC7
:101E9000B71FE8CD10922602B1E0B0934D025DCCA1
:101EA000D09076028D2D807F803109F027CD1B15D3
:101EB00008F482CD8B2D90E0FC01EC58FD4F208181
:101EC0002E3709F01BCDFC01EE58FD4F4F01FC01F0
:101ED000ED58FD4F9081D4018C91292F30E079018C
:101EE000F82A6DEF6B0D85E792E00E94F630E81658
:101EF000F90609F448C1C090750200CDF801828945
:101F0000E80FF11D758A91E0968B178A8D5FD801D5
:101F100052968C93F9CB80EC89831A82910142E02E
:101F200061E0D8011C968D919C911D970E9420150F
:101F300049812A81942F9227892F82958F70982723
:101F4000892F869586958927982F9695892780FDD4
:101F500098C046FFA6C0F8018289E80FF11D758A76
:101F600025E0268B178A8D5FD80152968C93CCCBB7
:101F7000D8011C96ED91FC911D976480B281BF87BA
:101F800023812F8B40E06B2F722F862D0E94F91832
:101F90000E94E0306B017C0130E1C30ED11CE11CDA
:101FA000F11C0E94E0302F2DC616D706E806290B3B
:101FB00027FFF7CFF89441E06F857F89862D0E9437
:101FC000F9180E94E0306B017C017894D101EAE0BD
:101FD0001D92EA95E9F7F4E8F98323E22A83910157
:101FE0004AE061E0D8011C968D919C911D970E945A
:101FF0002015FE01339685E09191892728E030E095
:1020000005C0880F2150310909F406CF87FFF9CFA9
:10201000880FBDE18B27F6CF548965899089218986
:10202000328943898F5F858F78946F935F934F9345
:102030003F932F939F9389811F928F9386E296E01F
:102040009F938F930E945935EDB7FEB73A960FB61E
:10205000F894FEBF0FBEEDBF76C9898584FF18C016
:102060008B8187FD60C0D80152968C91F801E80FF2
:10207000F11D758AB4E0B68B178A8D5FF801828BEB
:1020800043CBF8018289E80FF11D758A93E03CCFBC
:10209000D80152968C91F801E80FF11D758AB5E0D0
:1020A000EACFC818D908EA08FB08F80133893323B6
:1020B000C9F08FEF830F61E070E002C0660F771FF9
:1020C0008A95E2F7CB01092E000CAA0BBB0BC80EB8
:1020D000D91EEA1EFB1E04C0F694E794D794C79459
:1020E0003A95D2F77FEFC716D104E104F10408F066
:1020F0003FC0842F90E0AC01542F4427550F550F5B
:10210000F4E02F9FC0011124842B952BD801529607
:102110002C91F801E20FF11DC58A868B978B2D5FFC
:10212000F801228BF1CAC818D908EA08FB08F1E5C2
:10213000CF16F5E5DF06E104F104D0F42C8130E0A0
:10214000220F331F90E0982F8827990F822B932B13
:10215000D80152963C91F801E30FF11D2F8126958D
:102160002F73258B868B978B3D5FF801328BCCCA02
:10217000D80152968C91F801E80FF11D758A91E013
:1021800003CE11E0E1CB802F8D7F80932A028091D6
:102190000902D81202C181E08D0D8F708061809399
:1021A0000902B7E78B16B2E09B0609F008F4BEC03F
:1021B000E7E7F2E0B98ECDB6DEB68F010F5F1F4FB5
:1021C0002081222309F4E6C0EEE7F5E08491281788
:1021D00008F0E0C030E0220F331F220F331F220F20
:1021E000331FF901E950FD4FE4914DB75EB764E04C
:1021F000E69F4019510911240FB6F8945EBF0FBE37
:102200004DBF8DB79EB70196F901E750FD4F449140
:10221000F901E650FD4F65917491FB01640F711D4A
:10222000AC01D88ACF86988F8F8B6E177F0709F401
:1022300082C08016910608F46EC0A491A53028F1E2
:10224000A73009F068C02801BFEF4B1A5B0AD8011C
:10225000AC9082010A0D111D8016910608F45BC036
:10226000B12CC12CD12CDA01AD92BD92CD92DC9271
:102270001397612C712C14964D925D926D927C9205
:102280001797485F5F4F3196D0CF7A0184E0E80E10
:10229000F11C68019FEFC91AD90AD8011C91912F2E
:1022A0009F77492E512C612C712C012F007600361E
:1022B000A9F117FF3EC086010F5F1F4FD80111978C
:1022C0008C91440C551C661C771C440C551C661CD8
:1022D000771C440C551C661C771C440C551C661C52
:1022E000771C440C551C661C771C440C551C661C42
:1022F000771C440C551C661C771C982F9F77492A25
:1023000087FDDACFDA014D925D926D927C92139740
:10231000A70131968ACF87E00E94E53EB0EE4B2AB6
:1023200055245A94652C762CC4CFB98CDD24D394D3
:102330000ECB8601E7CFCF84D8888F89988D4091C6
:102340002702442331F0F901E850FD4FE491E0FF0A
:1023500011C024503D4FF90125913491F90119958F
:102360000FB6F894DEBE0FBECDBE08151905E8F60F
:10237000F80121CF809128021F928F93E2E6F6E0C8
:10238000FF93EF930E9459350FB6F894DEBE0FBE4F
:10239000CDBEEBCF85E00E94E53E1B2DCDCACF938D
:1023A000DF93EC016CEE71E188810E940D2BFC0142
:1023B0008C819D81AE81BF81892B8A2B8B2B51F41F
:1023C00020E0F89494A59D7F922B94A77894DF91B8
:1023D000CF91089522E0F5CF0F931F93CF93DF9312
:1023E0008C014DE250E06CEE71E1FC0180810E94B5
:1023F000DE2AEC01F801848518160CF041C064E077
:102400006CA7F80184810E948E2F6A8F7B8F8C8F3E
:1024100060E0F80180850E948E2F6D8F7E8F8F8FF8
:1024200080E090E0A0E0B0EC88A399A3AAA3BBA3AE
:10243000F80180899189A289B3898E8B9F8BA88F9F
:10244000B98F6BE070E0CE0184960E946F2B8E896D
:102450009F89A88DB98D8997A105B10548F086EFB0
:1024600092E19B838A83DF91CF911F910F91089511
:102470008CA580618CA7DF91CF911F910F9108955A
:1024800060E0BECFCF93DF93EC016CEE71E1888109
:102490000E940D2BFC018C819D81AE81BF81F8943F
:1024A0004685578560897189452B462B472B79F4E2
:1024B00084839583A683B783828B938BA48BB58B00
:1024C00084A5877F84A77894DF91CF91089586E1D2
:1024D0000E94E53E0F931F93CF93DF938C016CEE28
:1024E00071E1DC018C910E940D2BEC010E94892B83
:1024F000FC01D80114964D915D916D917C911797D7
:10250000428353836483758318968D919C911997A8
:1025100091878087892B09F466C0D8011C968D911C
:102520009C911D97978386831286F8948CA5282FFB
:10253000217081FB992790F9291729F091E08927CB
:102540009285916092874E855F8568897989452B50
:10255000462B472B59F583FD19C08CA71182108299
:102560008CA19DA1892BA9F1AEA1BFA1ED93FC93F4
:10257000FFA3EEA3CE010E948534CE010E94803CD1
:102580007894DF91CF911F910F9108958091470228
:102590009091480291838083F0934802E093470230
:1025A0007894DF91CF911F910F9108958CA711829C
:1025B00010828CA19DA1892B89F0AEA1BFA1ED93C2
:1025C000FC93FFA3EEA37894DF91CF911F910F911D
:1025D0000895FFA3EEA3FDA3ECA3CCCFFFA3EEA32E
:1025E000FDA3ECA3CDCF87E10E94E53ECF92DF9221
:1025F000EF92FF920F931F93CF93DF93EC01EA8D3D
:10260000FB8D8C8D80830E94E0300E891F89288D80
:10261000398D6B017C01C00ED11EE21EF31E8E852A
:102620009F85A889B9890197A109B1098E879F87DC
:10263000A88BB98B80FF0EC0CC82DD82EE82FF8238
:1026400081E0DF91CF911F910F91FF90EF90DF908C
:10265000CF900895892B8A2B8B2B59F1488559856A
:102660006A857B858A899B89AC89BD89840F951F82
:10267000A61FB71F8A8B9B8BAC8BBD8B0C851D85D2
:10268000012E000C220B330B400F511F621F731FD2
:10269000488759876A877B872B2F8C159D05AE0548
:1026A0002F0927FDC9CF8C839D83AE83BF8381E033
:1026B000C8CFCE010E948534811102C080E0C1CF15
:1026C0004C815D816E817F81972F4C155D056E0574
:1026D0009F0997FFB6CF4C195D096E097F094038F5
:1026E000514C6F4F7F4F0CF0A7CF88E10E94E53E21
:1026F0000F931F93CF93DF938C0180913F029091B2
:102700004002892B09F04BC060913E0270E06230BC
:1027100071052CF482E080933E0262E070E0E0916B
:102720003A02F0913B024DB75EB741505F4F4427EC
:102730005A959F01C0E0D0E0C901860F971F481746
:10274000590730F121969C01C115A4E0DA07A1F7E1
:102750008E1B9F0B0E943635D0934002C0933F02E0
:1027600090933D0280933C020E94252BF8018081CA
:102770009181A281B3818093410290934202A09300
:102780004302B0934402DF91CF911F910F910895BE
:10279000209711F0C901DCCF80E10E94E53E8DE079
:1027A0000E94E53ECF932091380230913902232BCD
:1027B00091F4FC01C0818C2F90E0880F991F880F45
:1027C000991F0E9436359093390280933802C09346
:1027D0003702CF9108958AE00E94E53E80913F0242
:1027E000909140029F938F9321E030912702311105
:1027F00001C020E01F922F93209144022F9320913B
:1028000043022F93209142022F93209141022F9354
:1028100021E0892B09F420E01F922F9384E496E0B5
:102820009F938F930E9459358DB79EB70C960FB624
:10283000F8949EBF0FBE8DBF089546E050E06FE450
:1028400074E1FC0180810C94DE2ACF92DF92FF922A
:102850000F931F93CF93DF93EC016FE474E18C81AE
:102860000E940D2B6C01F8840F2D10E0A8014D5F24
:102870005F4F65E274E188810E94DE2AFC01D1820B
:10288000C082F2826C857D85A8010396DF91CF918D
:102890001F910F91FF90DF90CF900C940640FF9214
:1028A0000F931F93CF93DF938C0146E050E06FE4CA
:1028B00074E1FC0180810E94DE2AEC01F801F084C1
:1028C00061E0F11060E0F80184810E948E2F6A833C
:1028D0007B838C838D81F11009C091E0892B8D83DE
:1028E000DF91CF911F910F91FF90089599E0892B6F
:1028F0008D83DF91CF911F910F91FF9008958BE110
:102900000E94E53E8F929F92AF92BF92FF920F93EB
:102910001F93CF93DF93EC016FE474E188810E94F1
:102920000D2B8C01F88483E08F1508F484C0F80126
:102930008581867009F07FC08C849D84AE84BF84BD
:102940008C819D81AE81BF81892B8A2B8B2B09F0D5
:1029500074C0EEE6F6E0A591B49111968C9180FDDD
:1029600004C060E088E00E948E2F60E089E00E9451
:102970008E2F60E08AE00E948E2F60E08BE00E9444
:10298000C01880E58CBD1DBC8114F2E19F06FAE7FA
:10299000AF06B10408F041C0811489E098068DE3C8
:1029A000A806B10418F5E0E88E16E4E89E06EEE10C
:1029B000AE06B104C0F5F0E48F16F2E49F06FFE026
:1029C000AF06B10468F580E2881681EA980687E0D0
:1029D000A806B10458F590E0E0E98E16E0ED9E06F9
:1029E000E3E0AE06B10428F583E002C090E080E0A9
:1029F000CF2DCC0FCC0FC065C82BF801C0839183BD
:102A0000858184608583DF91CF911F910F91FF9025
:102A1000BF90AF909F908F90089591E080E0E8CFB5
:102A200090E081E0E5CF91E081E0E2CF91E082E0CB
:102A3000DFCF82E0DDCF0E947F148EE20E94E53E70
:102A40006F927F928F929F92AF92BF92CF92DF92BE
:102A5000EF92FF920F931F93CF93DF934C01E62EDB
:102A6000142F6901DC0115967C901597872D8670CF
:102A700009F451C071FC39C0F401908181819CBD81
:102A80008DBDF72DF1706F2E70FCC8C0EE2009F4DB
:102A90009CC08FEF810F112351F0F60190819EBDF4
:102AA0000DB407FEFDCF9EB591938150B8F7662017
:102AB00091F1072D069506950695402F409541709A
:102AC000D40112966D917D918C91DF91CF911F91E0
:102AD0000F91FF90EF90DF90CF90BF90AF909F90BD
:102AE0008F907F906F900C94F918ED91FC91418537
:102AF00042706681778180850E94F918B72DB17088
:102B00006B2E70FC17C0D401CD91DC91AA24AA943D
:102B1000A10E111126C0DF91CF911F910F91FF904F
:102B2000EF90DF90CF90BF90AF909F908F907F906D
:102B30006F900895072D069506950695402F4170D4
:102B4000F4016281738184810E94F918D401CD91CE
:102B5000DC91AA24AA94A10E112309F4AECF662415
:102B60006394B12C8FEFA81AB80AAC0CBD1CD60127
:102B7000FC9008E010E0898580FF35C0EE81FF8180
:102B8000888580834F2D40786B817C818D810E9468
:102B9000F918FF0CEE81FF8188858083110FE88191
:102BA000F98190818A81892391E009F490E0192BC1
:102BB000015009F7EE2011F0F6011083FFEFCF1A54
:102BC000DF0AAC14BD0499F672CFF6019601210F0D
:102BD000311D2E173F0709F46ACF81918EBD0DB4C8
:102BE00007FEFDCFF6CF4F2D40786B817C818D8124
:102BF0000E94F918FF0CEE81FF8188858083110FF8
:102C0000E881F98190818A81892391E009F490E03B
:102C1000192BEE81FF8188858083CACF73FA442700
:102C200040F9F4016281738184810E94F91866245D
:102C300063942CCFCF93DF93EC016FE474E1888130
:102C40000E940D2B288539854C8160E0DF91CF9162
:102C50000C942015FF920F931F93CF93DF93EC01F9
:102C600018816FE474E1812F0E940D2B0C81F88490
:102C7000C9852F2D3C2F402F61E00E942015CF9356
:102C8000FF921F920F931F921F9381E296E09F93F2
:102C90008F930E9459358DB79EB708960FB6F8945A
:102CA0009EBF0FBE8DBFDF91CF911F910F91FF90FF
:102CB0000895FC0192899460928B1092260281E023
:102CC00080935B0280E00895FC011092260281E06F
:102CD00080934502818D8160818F44815581668119
:102CE000778180859185A285B385840F951FA61F66
:102CF000B71F84839583A683B78381E008950F93DC
:102D00001F93CF93DF938C0161EC76E1FC0180810E
:102D10000E940D2BEC010E942E3CF80184819581CC
:102D2000A681B7818C839D83AE83BF838085918587
:102D3000A285B38588879987AA87BB87892B8A2B29
:102D40008B2B29F4DF91CF911F910F9108958485EA
:102D50009585A685B7858C879D87AE87BF87808937
:102D60009189A289B389888B998BAA8BBB8B848923
:102D70008E8B1F8ACE01DF91CF911F910F910C9402
:102D8000803CFF920F931F93CF93DF93EC01F88465
:102D900083E08F15E0F04AE150E061EC76E1888154
:102DA0000E94DE2A8C0184E696E1F80193838283F7
:102DB0006FE474E18C810E940D2BF801958B848B5C
:102DC000F08EDF91CF911F910F91FF90089587E2D0
:102DD0000E94E53E8F929F92AF92BF92EF92FF9238
:102DE0000F931F93CF93DF931F921F92CDB7DEB740
:102DF0007C0169E97AE1FC0180810E940D2B8C0144
:102E00008FEA89831A820E94E0304B015C019E01A7
:102E10002F5F3F4F42E061E0F801848595850E9475
:102E200020150E94E030F80121892F9320892F93EB
:102E30002A812F711F922F9323891F922F93278509
:102E40002F9326852F93DC01CB0188199909AA09B4
:102E5000BB09BF93AF939F938F93BF92AF929F9203
:102E60008F92F70180811F928F9383E096E09F936A
:102E70008F930E9459350FB6F894DEBF0FBECDBFB9
:102E80000F900F90DF91CF911F910F91FF90EF90D6
:102E9000BF90AF909F908F9008958F929F92AF9226
:102EA000BF92CF92EF920F931F93CF93DF93EC01DA
:102EB000480159011F92EF92BF92AF929F920F93D8
:102EC0007F936F935F934F931F92CF9289EF95E01B
:102ED0009F938F930E9459358DB79EB70E960FB66C
:102EE000F8949EBF0FBE8DBFE11009C08C859D85F3
:102EF000AE85BF8588169906AA06BB0688F48F8919
:102F00008F5F8F8B9E898917B0F4DF91CF911F91CE
:102F10000F91EF90CF90BF90AF909F908F900895BA
:102F200088899989AA89BB8988159905AA05BB054D
:102F300030F31F8AEACF809127028111FACF86E20F
:102F40000E94E53ECF92DF92EF92FF926B017C01EF
:102F500009C00E94E030292F6C157D058E052F09D0
:102F600027FF09C08091BC0087FFF3CFFF90EF904F
:102F7000DF90CF90089580E30E94E53E24EA2093FD
:102F8000BC000E94A2178091B90090E0A0E0B0E0E0
:102F900080319105A105B10521F00897A105B10582
:102FA00009F408958FE20E94E53E7F928F929F92EE
:102FB000AF92BF92CF92DF92EF92FF920F931F9347
:102FC000CF93DF93782EC62F942EB52E822E0E949B
:102FD000E0306B017C0120E8C20E28E3D21E21E024
:102FE000E21EF11CC701B6010E94BE177092BB0021
:102FF00084E88093BC00C701B6010E94A217AA24EE
:10300000AA94AC0ECC23B1F0C92DDB2DB12C8FEFDF
:10301000A81AB80AAC0EBD1E94E8992E8991809327
:10302000BB009092BC00C701B6010E94A217AC166B
:10303000BD06A1F7C701B6010E94BE17872D8160AA
:103040008093BB0084E88093BC00C701B6010E9456
:10305000A217DFEFD80D882009F15801CD2F84EC9D
:10306000982ECC2369F09092BC00C701B6010E9453
:10307000A2178091BB00F50181935F01C15099F7C0
:10308000F801ED0FF11DEF0184E88093BC00C7014A
:10309000B6010E94A2178091BB00888384E98093C7
:1030A000BC00DF91CF911F910F91FF90EF90DF90C7
:1030B000CF90BF90AF909F908F907F900895BF92D8
:1030C000CF92DF92EF92FF920F931F93CF93DF93F4
:1030D000D82FC62FB42E152F0E94E0306B017C0133
:1030E00020E8C20E28E3D21E21E0E21EF11CC70137
:1030F000B6010E94BE17D093BB0084E88093BC0049
:10310000C701B6010E94A2170FEF0C0FCC23A9F044
:10311000CB2DD12F10E00F5F1F4F0C0F1D1F84E828
:10312000B82E89918093BB00B092BC00C701B60154
:103130000E94A217C017D107A1F784E98093BC00B1
:10314000DF91CF911F910F91FF90EF90DF90CF9083
:10315000BF900895FB012FB7F8949281141644F4A0
:10316000982B809592839181892381832FBF089525
:103170008095982392839181892381832FBF08951D
:103180008036A0F567FD32C0E82FE695E695E69516
:10319000F0E0EE0FFF1FE459F94FA591B49110979D
:1031A00029F1877021E030E0A90102C0440F551FCA
:1031B0008A95E2F7CA014FB7F89412963C9112979C
:1031C000662381F0382B282F209512963C93129776
:1031D00011963C911197232311962C9311974FBF71
:1031E000BD010895282F20953223EFCF8BE20E9456
:1031F000E53EFB012FB7F8949281411105C08095FF
:10320000892382832FBF0895892B82832FBF08953E
:10321000FB012FB7F8949281411109C0382F3095E6
:10322000932392839181892B81832FBF0895982BBB
:1032300092839181892B81832FBF0895CF92DF9252
:10324000EF92CF93DF93EC0161E088859985AA85A1
:10325000BB85892B8A2B8B2B09F460E08C810E9423
:103260008E2F6B01E82E44E250E06EE179E1888117
:103270000E94DE2AFC01C48AD58AE68A21E04885BC
:1032800059856A857B85452B462B472B09F420E021
:103290004C855D856E857F85452B462B472BB1F48C
:1032A00030E0232BFC0123A3488959896A897B8953
:1032B000478B508F618F728F6AE070E04F96DF917D
:1032C000CF91EF90DF90CF900C946F2B30E1E9CF4E
:1032D000CF93DF93EC016EE179E188810E940D2BA1
:1032E000F894FC01278D30A1232B69F44C815D817A
:1032F0006E817F81FC01438F548F658F768F789428
:10330000DF91CF91089584E10E94E53E8F929F92D4
:10331000AF92BF92CF92DF92EF92FF921F93CF9323
:10332000DF93EC01EF8CF8A0E114F10409F4F0C094
:10333000F7018081918198A38F8F86809780A084E8
:10334000B18411E081149104A104B10409F4A1C075
:103350006C897D898E89412F0E94F91880914702DE
:1033600090914802F70191838083F0924802E092A5
:10337000470281149104A104B104E9F08B8D9C8D66
:10338000AD8DBE8D88169906AA06BB06A0F44F899E
:10339000588D698D7A8D411551056105710509F4C6
:1033A0005BC08C819D81AE81BF81480F591F6A1F10
:1033B0007B1F166022C08BA131E081149104A1040F
:1033C000B10409F068C084FB992790F921E09227A5
:1033D000391709F443C04F89588D698D7A8D41158D
:1033E000510561057105D1F18C819D81AE81BF814F
:1033F000480F591F6A1F7B1F1460EF8DF8A130978B
:1034000009F077C02BA1488B598B6A8B7B8B20717D
:10341000212B2BA311FF5FC0880D991DAA1DBB1D79
:1034200012FD52C028E73EE23B832A838C839D83B2
:10343000AE83BF8388869986AA86BB868B8D9C8D3A
:10344000AD8DBE8D88199909AA09BB098C879D8706
:10345000AE87BF8781E011C012608BA1EF8DF8A10C
:103460003097D9F4188A198A1A8A1B8A8071812B9D
:103470008BA3812F827011FD34C0DF91CF911F91FA
:10348000FF90EF90DF90CF90BF90AF909F908F9084
:10349000089510E05DCF30E096CF42815381648182
:1034A0007581488B598B6A8B7B8B8071912F9460CF
:1034B000892B8BA311FF0FC08C819D81AE81BF81B1
:1034C000880D991DAA1DBB1D2B2F84179507A607D4
:1034D000270B27FDA7CF4C835D836E837F8381E01D
:1034E000CCCF40E050E0BA018C819D81AE81BF819C
:1034F00093CFC280D380E480F580872F4C155D0583
:103500006E058F0987FD07C08BA1B701A601C9CF42
:1035100085E10E94E53E83E10E94E53EFC0192893F
:103520009460928B1092260281E08093460280E0A4
:1035300008950F931F93CF93DF938C0145E450E0E0
:1035400069E97AE1FC0180810E94DE2AEC018EE8C3
:103550009AE19B838A836FE474E1F80184810E947D
:103560000D2B9D878C87DF91CF911F910F9108952F
:10357000CF93DF93EC0145969F938F938B891F9296
:103580008F938F858F938E858F931F926F938EEF7E
:1035900095E09F938F930E9459351B8A8E859F8556
:1035A00001969F878E878DB79EB70A960FB6F894BF
:1035B0009EBF0FBE8DBFDF91CF910895CF93DF9354
:1035C000EC016B817C818D8140E00E9408198D8522
:1035D0009E850E94633B6E817F81888541E00E94C9
:1035E000AA188D859E850E94633B69857A858B85A7
:1035F00041E0DF91CF910C94AA180F931F93CF93C2
:10360000DF93EC01062F18E01DC06B817C818D815A
:1036100040E00E940819000F8D859E850E94633B43
:103620006E817F81888541E00E94AA188D859E85E4
:103630000E94633B688179818A8140E00E94081979
:10364000115049F007FFE1CF69857A858B8541E00C
:103650000E94AA18E0CF69857A858B8541E00E9497
:10366000AA188D859E850E94633B6E817F81888527
:1036700041E00E94AA18E985FA8510818B851823FC
:103680008D859E850E94633B688179818A8140E0B7
:103690000E94081969857A858B8541E00E94AA18E5
:1036A000111105C0DF91CF911F910F91089585E20F
:1036B0000E94E53E1F93CF93DF93EC01162F8D857B
:1036C0009E850E94633B69857A858B8541E00E94D7
:1036D000AA186E817F81888541E00E94AA188D8595
:1036E0009E850E94633B6B817C818D8140E00E94BE
:1036F00008198D859E850E94633B688179818A8146
:1037000040E00E940819612FCE01DF91CF911F91F7
:103710000C94FD1A0F931F93CF93DF93EC01F89451
:103720000E94E030088519852A853B85DC01CB01A4
:10373000800F911FA21FB31F8C839D83AE83BF8315
:10374000CE010E94803C7894DF91CF911F910F9120
:1037500008959F92AF92BF92CF92DF92EF92FF9225
:103760000F931F93CF93DF93CDB7DEB729970FB693
:10377000F894DEBF0FBECDBF8C01962E9E012F5F49
:103780003F4F87E0F90111928A95E9F78FEA888720
:10379000198688EA8983F801C388D12C7601F5E17E
:1037A000EF0EF11CE00EF11E47E061E0F8018485A8
:1037B00095850E9420159E01285F3F4F42E061E001
:1037C000F801848595850E9420158985F82FFF735F
:1037D000AF2E8074B82EF801EC0DFD1D8A81858B0B
:1037E0008B81F70181838C8182838D8183838E819C
:1037F00084838F818583F80183898A5F838B8B32F1
:1038000070F5BB2031F0F801808991890196918B88
:10381000808BA11004C0F8018489882329F1F80164
:10382000828981FF0AC0C8010E942E3CF80182896A
:103830008B7F828BC8010E948A1B29960FB6F89451
:10384000DEBF0FBECDBFDF91CF911F910F91FF90D3
:10385000EF90DF90CF90BF90AF909F900895692D2B
:10386000C8010E94B81ACDCF1092260281E0809341
:103870004602E3CF4F925F926F927F928F929F9218
:10388000AF92BF92DF92EF92FF920F931F93CF936D
:10389000DF9300D01F92CDB7DEB77C01FC01D08052
:1038A00069E97AE18D2D0E940D2B8C01F70180854D
:1038B0009185A285B385892B8A2B8B2BB1F1C80109
:1038C0000E942E3CF70184819581A681B781F80181
:1038D00084839583A683B783F70180859185A2852C
:1038E000B385F80180879187A287B38781E0828BB7
:1038F000118A108A17861686138A148AC8010E94B4
:10390000803C0F900F900F900F90DF91CF911F91FF
:103910000F91FF90EF90DF90BF90AF909F908F90AE
:103920007F906F905F904F900895C8010E942E3C49
:10393000F801128A81E0848B6D2DC8010E94A91BB9
:103940008EE28B831C820E94E0302B013C019E01A1
:103950002D5F3F4F42E060E0F801848595850E942D
:1039600020150E94E0304B015C018FEA89831A82A6
:103970009E012F5F3F4F42E061E0F801848595850D
:103980000E9420158A818F71F82EF801838988237F
:1039900031F06D2DC8010E94B81AF8018389F80131
:1039A00091899F9390899F931F92FF921F928F936B
:1039B00087858F9386858F93D501C40184199509D6
:1039C000A609B709BF93AF939F938F937F926F928E
:1039D0005F924F921F92DF9283E096E09F938F93C6
:1039E0000E9459350FB6F894DEBF0FBECDBF89CF08
:1039F0009F92AF92BF92CF92DF92EF92FF920F937E
:103A00001F93CF93DF93EC01C62E942ED52EB22EAA
:103A100078016C85862F8160A82EC11085C06A2D23
:103A2000CE010E945A1B8FEF8B0DBB2009F46EC094
:103A30006701C80ED11C69857A858B8541E00E949B
:103A4000AA1808E010E08D859E850E94633B6E8178
:103A50007F81888541E00E94AA188D859E850E94FD
:103A6000633B110FE985FA8590818B85892391E06D
:103A700009F490E0192B688179818A8140E00E94E5
:103A80000819015001F769857A858B8541E00E940C
:103A9000AA18CE14DF04F1F06B817C818D8140E0A7
:103AA0000E9408198D859E850E94633B6E817F81EF
:103AB000888541E00E94AA188D859E850E94633BFF
:103AC000688179818A8140E00E940819F701119389
:103AD0007F01B1CF69857A858B8541E00E94AA1864
:103AE0008D859E850E94633B6E817F81888541E044
:103AF0000E94AA188D859E850E94633B688179810A
:103B00008A8140E00E940819F6011083CE01DF91FE
:103B1000CF911F910F91FF90EF90DF90CF90BF90CA
:103B2000AF909F900C94DE1ACE010E945A1B092D73
:103B30001D2DCA94D12CEFEFCE1ADE0AC00ED11E75
:103B4000F80161918F01CE010E94FD1AC016D106C5
:103B5000B9F765CFDF92EF92FF920F931F93CF9348
:103B6000DF937C01C62FD42E152FFC0164850E94A3
:103B70005A1B0FEF0C0FCC2371F0CD2DD12F10E07D
:103B80000F5F1F4F0C0F1D1F6991C7010E94FD1A87
:103B9000C017D107C9F7C701DF91CF911F910F91CE
:103BA000FF90EF90DF900C94DE1A8EE10E94E53ECC
:103BB0000F931F93CF93DF93FC01A189B2898D915D
:103BC0009C911197928B818B16968D919C91179752
:103BD000C085D185228521113FC02FB7F894AC0153
:103BE0005527598348832FBF2091470230914802BF
:103BF00011963C932E93B0934802A0934702A1895B
:103C0000B289109759F5278530898217930741F0BB
:103C100083859485A585B6850097A105B10531F406
:103C200080E0DF91CF911F910F91089544815581DC
:103C300066817781840F951FA61FB71F84839583A4
:103C4000A683B78385ED9DE19383828381E0DF9135
:103C5000CF911F910F9108958883C6CF12964D91F1
:103C60005D916D917C911597278530898217930717
:103C700041F083859485A585B6850097A105B1059A
:103C800051F4448355836683778381E0DF91CF913C
:103C90001F910F9108950481158126813781800F2E
:103CA000911FA21FB31F2B2F84179507A607270B61
:103CB00027FFE7CF8DE10E94E53EEF92FF920F9341
:103CC0001F93CF93DF937C0167ED7EE1DC018C9144
:103CD0000E940D2B8C010E94892BEC01F70184813D
:103CE0009581A681B7818A839B83AC83BD838085C0
:103CF00091859F838E83F89419821882D8015196FA
:103D00008D919C915297892BB9F15396ED91FC912D
:103D10005497D183C0835496DC93CE93539780E01D
:103D200090E07894892B39F4DF91CF911F910F9116
:103D3000FF90EF900895C8010E942E3CD801129682
:103D40008D919C911397855D9D41F1F08A819B81B6
:103D5000AC81BD8128ED3DE1F8013383228384836A
:103D60009583A683B783C801DF91CF911F910F91EF
:103D7000FF90EF900C94803CF801D48BC38BD28BD6
:103D8000C18B81E090E0CDCF8A819B81AC81BD81E8
:103D9000F8014481558166817781272F481759079B
:103DA0006A072B0B27FFD6CF8DE10E94E53ECF920D
:103DB000DF92EF92CF93DF93EC01488559856A85B6
:103DC0007B852C858C810E94A92D6B01E82E45E115
:103DD00050E067ED7EE188810E94DE2AFC01C0860A
:103DE000D186E28688899989908B87878C899D897D
:103DF000AE89BF8983879487A587B68788ED9DE1C3
:103E00009383828368E070E0CF014196DF91CF9188
:103E1000EF90DF90CF900C946F2B0F931F93CF9365
:103E2000DF938C016CE97FE1FC0180810E940D2B06
:103E3000EC010E942E3C909100028A8D981303C0E1
:103E40008FEF80930002F80184819581A681B7816C
:103E5000888B998BAA8BBB8B8C839D83AE83BF830E
:103E600080859185A285B3858C879D87AE87BF8726
:103E700084858E8F91E0980F9D8F4089518962894A
:103E80007389488759876A877B87248935893F8B5F
:103E90002E8B208D318D398F288F948D9C8F8111A1
:103EA00005C0DF91CF911F910F910895CE01DF9151
:103EB000CF911F910F910C94803CEF92FF920F9342
:103EC0001F93CF93DF938C016AE87FE1FC0180812F
:103ED0000E940D2BEC01F8948E8980FF13C07E01A7
:103EE000F8E0EF0EF11CC7010E942E3CF80184811E
:103EF0009581A681B7818C879D87AE87BF87C701D3
:103F00000E94803C7894DF91CF911F910F91FF9098
:103F1000EF90089549E150E06AE87FE1FC0180817B
:103F20000E94DE2A23E938E2FC01338322832EEA51
:103F300038E2338722870895CF93DC0114969C9151
:103F4000149720E030E0C22FF901EC57FA4FE491CA
:103F50009E1741F02F5F3F4F20313105A1F78DE2D1
:103F60000E94E53E87E980937A002830E8F42091AA
:103F70007E0081E090E00C2E01C0880F0A94EAF7E1
:103F8000822B80937E004FE150E06CE97FE18C91C1
:103F90000E94DE2AFC0182EE9FE193838283C28F1E
:103FA00081E0858FCF91089520917D003C2F37705F
:103FB00081E090E001C0880F3A95EAF7822B809368
:103FC0007D00E1CFFC0180917A0086FF0EC08481E4
:103FD0009581A681B7818853984FAF4FBF4F848397
:103FE0009583A683B78381E00895828D9091000226
:103FF000981781F09F3F59F780930002982F98708F
:1040000090937B008770806480937C0087ED809321
:104010007A00DDCF8FEF80930002209178003091FD
:104020007900858D968D891780F544895589240FEF
:10403000351F8F5F358B248B858F891760F18689BB
:10404000978928173907C8F1808D918D82179307BA
:10405000A0F1138E1092260281E080934A024089DB
:1040600051896289738980859185A285B385840F82
:10407000951FA61FB71F808B918BA28BB38B848358
:104080009583A683B78381E0089581E0358B248BE7
:10409000858F8917A0F64481558166817781848553
:1040A0009585A685B785840F951FA61FB71F8483A6
:1040B0009583A683B78381E00895838D8F5F838F77
:1040C000948D891738F2809127028111C2CF8AE13D
:1040D0000E94E53E1F93CF93DF93EC01162FAC892E
:1040E000BD891097B9F01296ED91FC9113978D91BF
:1040F0009C9111979D8B8C8B11961C921E921396FE
:104100001C921E921297612FCD011995AC89BD8921
:10411000109749F71092260281E080934902DF91BF
:10412000CF911F910895EF92FF921F93CF93DF934A
:104130007C01FC0110816AE87FE1812F0E940D2B38
:10414000EC01F8948E8980FF09C0F70164816F8BC0
:104150008A7F84608E8BCE010E946A20CE010E94ED
:104160002E3CCE0108960E942E3C1E8A8F897894A0
:104170001F921F921F921F921F928F931F921F9246
:104180001F921F938BE296E09F938F930E94593565
:104190008DB79EB70C960FB6F8949EBF0FBE8DBF1D
:1041A000DF91CF911F91FF90EF900895CF93DF9310
:1041B000EC010E942E3CCE0108960E942E3CEC8918
:1041C000FD89309751F09081818113821282118292
:1041D0001082E92FF82F3097B1F71D8A1C8A188EAC
:1041E0001F8A1E8ADF91CF9108950F931F93CF935B
:1041F000DF938C016AE87FE1FC0180810E940D2B36
:10420000EC01F8940E94D62081E08E8BF801848125
:104210009581A681B7818C839D83AE83BF83808582
:104220009185A285B385888B998BAA8BBB8B892BB3
:104230008A2B8B2B19F0CE010E94803CF8018485DB
:10424000888F7894DF91CF911F910F910895FC0191
:10425000808982FD19C08460808B1092260281E0E3
:1042600080934B0244815581668177818085918559
:10427000A285B385840F951FA61FB71F84839583DE
:10428000A683B78381E0089584898F5F848BE5CF0F
:10429000FF920F931F93CF93DF93EC01F88483E099
:1042A0008F1508F145E450E068E471E288810E94CE
:1042B000DE2A8C0187E291E2F801938382836FE426
:1042C00074E18C810E940D2BF80195878487FC0195
:1042D000858180FF0BC0F801F18ADF91CF911F919A
:1042E0000F91FF90089589E20E94E53E88E20E94C6
:1042F000E53ECF93DF93EC0145969F938F938A8998
:104300001F928F938F858F938E858F931F926F93BC
:1043100080EE95E09F938F930E9459351A8A8E857F
:104320009F8501969F878E878DB79EB70A960FB699
:10433000F8949EBF0FBE8DBFDF91CF910895FF927D
:104340000F931F93CF93DF938C01FC01F08068E4FF
:1043500071E28F2D0E940D2BEC010E942E3C188AD9
:10436000F80180859185A285B385892B8A2B8B2BBB
:1043700001F58A89811118C08F858F938E858F935F
:104380001F92FF9285EE95E09F938F930E9459357F
:104390000F900F900F900F900F900F90DF91CF9193
:1043A0001F910F91FF9008956F2DCE010E947921EA
:1043B000E3CFF80184819581A681B7818C839D83A9
:1043C000AE83BF8380859185A285B38588879987D1
:1043D000AA87BB871F861E861A8A84858B8BCE018F
:1043E000DF91CF911F910F91FF900C94803CCF9360
:1043F000DF93EC016A8D662309F453C0FC0150E0A1
:1044000031E020E0A38DB48D4C91958D942309F07B
:10441000532B2F5F330F33962613F4CF2C85922F17
:10442000952729F08D85852780959823D9F4888D47
:104430005D8787FD03C0815070F1888F4C815D815D
:104440006E817F8188859985AA85BB85840F951F9C
:10445000A61FB71F8C839D83AE83BF8381E0DF914E
:10446000CF910895982F909529238523822B8C87AF
:104470009E859830E0F621E0290F2E87FE01E90F96
:10448000F11D87871092260281E080934C028FEF06
:10449000888F5D87D3CF1092260291E090934C02D3
:1044A000CCCF50E0BBCF0F931F93CF93DF938C0102
:1044B00060E972E2FC0180810E940D2BEC010E94F8
:1044C0002E3CF80184819581A681B7818C839D83E0
:1044D000AE83BF8340855185628573854887598740
:1044E0006A877B8780898D878C871E861F8A8EEFDF
:1044F000888F8485898F87FD10C0452B462B472BDD
:1045000029F4DF91CF911F910F910895CE01DF9192
:10451000CF911F910F910C94803C8FE10E94E53E5A
:10452000CF93FC01C481C930B8F44C2F50E09A01FC
:10453000220F331F420F531F455E5F4F60E972E247
:10454000FC0180810E94DE2AFC01C28F27EF31E24C
:1045500033832283CF91089581E20E94E53E0F9339
:104560001F93CF93DF938C0160E972E2DC018C91A1
:104570000E940D2BFC01D80114969C91828D9817F6
:10458000B8F4292F30E0E901CC0FDD1F2C0F3D1FBF
:10459000EF01C20FD31FF801648580850E94C01807
:1045A0006B8F7C8F8D8FDF91CF911F910F9108952D
:1045B00080E20E94E53EFC0144815581668177815D
:1045C000208580810C94A92DFC0196899460968B9E
:1045D0001092260281E080934D0280E008950F93AF
:1045E0001F93CF93DF938C0148E450E06FEE72E2AB
:1045F000FC0180810E94DE2AEC0184EE92E29B8322
:104600008A836EEE7CE2F80184810E940D2B9D87E7
:104610008C87DF91CF911F910F9108954F925F92F8
:104620006F927F928F929F92AF92BF92CF92DF92C2
:10463000EF92FF920F931F93CF93DF9300D0CDB7EC
:10464000DEB76C016FEE72E2DC018C910E940D2BE3
:104650007C010E94E0304B015C0182E78B83D70133
:104660001C96ED91FC911D978E010F5F1F4F22E06C
:10467000AE014D5F5F4F61E080810E94D5170E94BF
:10468000E0302B013C0189818F718983F701818999
:104690008F9380898F9324893589ABEABAEA0E9487
:1046A0008F3F96958795969587959F938F9387894A
:1046B0001F928F9387858F9386858F93D301C20135
:1046C00088199909AA09BB09BF93AF939F938F9348
:1046D000BF92AF929F928F92D6018C911F928F932F
:1046E0008BED95E09F938F930E9459350FB6F89408
:1046F000DEBF0FBECDBF0F900F900F90DF91CF9117
:104700001F910F91FF90EF90DF90CF90BF90AF90EF
:104710009F908F907F906F905F904F9008957F92C1
:104720008F929F92AF92BF92CF92DF92EF92FF92C1
:104730000F931F93CF93DF937C01DC01DC9168E43E
:1047400071E28D2F0E940D2B8C01F701C481B08482
:10475000A184DC0151969C90B2E09B1609F44FC0F5
:104760000E94E0306B017C012B2D3A2D4C2F61E033
:10477000D8011C968D919C911D970E9420150E9436
:10478000E0308B019C010C191D092E093F090132F3
:1047900013402105310558F54C2F50E0E1E09E16FD
:1047A00059F1AF92BF925F934F93FF92EF92DF92D6
:1047B000CF921F92DF938AEE95E09F938F930E9492
:1047C00059358DB79EB70C960FB6F8949EBF0FBEA5
:1047D0008DBFDF91CF911F910F91FF90EF90DF90F0
:1047E000CF90BF90AF909F908F907F90089540E0C2
:1047F00050E0E1E09E12D5CF6B017C01D2CFDC010D
:104800001C96ED91FC911D9794808280738040E00E
:10481000682D772D892D0E94F9180E94E0306B01D8
:104820007C01B0E1CB0ED11CE11CF11C0E94E030F8
:104830002F2DC616D706E806290B27FFF7CFF894C9
:1048400041E0682D772D892D0E94F9180E94E030F3
:104850006B017C0178942B2D3A2D4C2F61E0F801EF
:10486000848595850E9420154C2F50E09ACF0F9398
:104870001F93CF93DF93EC01F8940E94E0300885FA
:1048800019852A853B85DC01CB01800F911FA21F72
:10489000B31F8C839D83AE83BF83CE010E94803C77
:1048A0007894DF91CF911F910F910895CF93DF936B
:1048B000EC0148969F938F938F891F928F938F85DA
:1048C0008F938E858F931F926F9386ED95E09F93C4
:1048D0008F930E9459351F8A8E859F8501969F87E9
:1048E0008E878DB79EB70A960FB6F8949EBF0FBEFF
:1048F0008DBFDF91CF9108954F925F926F927F921B
:104900008F929F92AF92BF92DF92EF92FF920F939E
:104910001F93CF93DF9300D01F92CDB7DEB78C01EA
:10492000DC01DC906FEE72E28D2D0E940D2B7C017C
:10493000F80180859185A285B385892B8A2B8B2BE5
:10494000C9F1C7010E942E3CF80184819581A6819E
:10495000B781F70184839583A683B783F8018085A7
:104960009185A285B385F70180879187A287B38758
:1049700081E0868B17861686118A108A178A138A19
:10498000128A158A148AC7010E94803C0F900F90EA
:104990000F900F90DF91CF911F910F91FF90EF90AB
:1049A000DF90BF90AF909F908F907F906F905F90BF
:1049B0004F900895C7010E942E3CD70156961C9235
:1049C00083E289831A820E94E0304B015C01D701A7
:1049D0001C96ED91FC911D97AE014F5F5F4F62E019
:1049E00080810E945F180E94E0302B013C018AE325
:1049F0008C83D7011C96ED91FC911D978E010D5F64
:104A00001F4F21E0AE014C5F5F4F61E080810E944B
:104A1000D5178B8184FD48C0D70157968C91882388
:104A200021F06D2DC7010E945624B7016E5E7F4FA5
:104A3000F701848595850E941531D70151962C91F7
:104A400051972F9350962C912F939C01ABEABAEA81
:104A50000E948F3F96958795969587959F938F9304
:104A6000F70187891F928F9387858F9386858F9310
:104A7000D301C20188199909AA09BB09BF93AF9351
:104A80009F938F93BF92AF929F928F921F92DF92CC
:104A90008BED95E09F938F930E9459350FB6F89454
:104AA000DEBF0FBECDBF72CFF7018089918901961D
:104AB000918B808BB1CFCF92DF92EF92FF92CF9309
:104AC000DF93FC01A085B18582858C93968581E07A
:104AD00089278687C82FC170C688D788E08CF18C5B
:104AE00097859F5FD1899D1708F05FC0892F8695B4
:104AF00086958695DF01A80FB11D5A962C9130E05E
:104B0000892F877002C0359527958A95E2F7217025
:104B1000B701A601C217A9F033C0892F86958695E3
:104B20008695DF01A80FB11D5A962C9130E0892F90
:104B3000877002C0359527958A95E2F72170C213D8
:104B40001FC04C0D5D1D6E1D7F1D9F5F9D1728F3BF
:104B500080E598E29383828384819581A681B781E1
:104B6000480F591F6A1F7B1F4483558366837783D1
:104B700081E0DF91CF91FF90EF90DF90CF9008958B
:104B8000978784819581A681B781480F591F6A1F35
:104B90007B1F448355836683778381E0DF91CF91C8
:104BA000FF90EF90DF90CF900895B701A601D0CF8E
:104BB0006F927F928F92CF92DF92EF92FF92CF937C
:104BC000DF93EC0160E08C810E948E2F3B01882EE8
:104BD000C884D984EA84FB84D7FC24C0A601415F41
:104BE0005F4F68ED75E288810E94DE2AFC016082D9
:104BF00071828282D686C5868C859D8594838383C7
:104C000088899989AA89BB8981879287A387B48774
:104C1000DF91CF91FF90EF90DF90CF908F907F90BA
:104C20006F90089584E20E94E53ECF92DF92EF926A
:104C3000FF920F931F93CF93DF93EC01E885F985E3
:104C40008A8580830E94E0303E8521E023272E87DD
:104C50002F852F5F2F87213009F45CC02530E0F4C9
:104C60000C811D812E813F814A895B896C897D89F8
:104C7000DB01CA01800F911FA21FB31F8C839D838C
:104C8000AE83BF8381E0DF91CF911F910F91FF90A1
:104C9000EF90DF90CF900895CC80DD80EE80FF8094
:104CA000AB01BC014C195D096E097F098E899F8992
:104CB000A88DB98D481B590B6A0B7B0BDB01CA0110
:104CC0000296A11DB11DB7FD34C0B595A795979566
:104CD0008795B595A795979587950A891B892C89FE
:104CE0003D89800F911FA21FB31F8E8B9F8BA88FB2
:104CF000B98F2BE535E23B832A834C0D5D1D6E1D7C
:104D00007F1D840F951FA61FB71F8C839D83AE83C5
:104D1000BF83B8CF0C811D812E813F81AB01BC01C7
:104D2000401B510B620B730B4E8B5F8B688F798F1F
:104D30009BCFDB01CA010596A11DB11DC6CFEF9225
:104D4000FF920F931F93CF93DF937C0160E477E290
:104D5000FC0180810E940D2BEC011E8511FF07C014
:104D6000DF91CF911F910F91FF90EF900895F70180
:104D7000048160857185F4840B3008F045C0FAE049
:104D8000FF1508F441C0402F50E04A960E940640AB
:104D90001F86117312601E87802F880F880F880F5F
:104DA000898BFF0CFF0CFF0CF88A002349F08A8DD9
:104DB0008F738A3229F485E196E29B838A830CC043
:104DC0008A899B89AC89BD898E8B9F8BA88FB98F6F
:104DD0008BE595E29B838A83F8940E94E030DC01A6
:104DE000CB018058934FAF4FBF4F8C839D83AE83D1
:104DF000BF83CE010E94803C7894DF91CF911F91B8
:104E00000F91FF90EF90089582E20E94E53E0F938C
:104E10001F93CF93DF938C0160E972E2DC018C91E8
:104E20000E940D2BEC01D8011496EC918F898E0F06
:104E30008F8BF8948E85E817D0F48E1BF0E03F96A8
:104E4000EC0FFD1FDE011F962FEF280F30E0205FD3
:104E50003F4F2C0F3D1F91919D93A217B307D9F798
:104E60008E877894DF91CF911F910F9108951E86C0
:104E70008EEF888F7894DF91CF911F910F910895D5
:104E80007F928F929F92AF92BF92CF92DF92EF92DA
:104E9000FF920F931F93CF93DF93EC0144E250E016
:104EA00060E477E288810E94DE2A8C0178848C801D
:104EB0009D80AE80BF80CC84DD84EE84FF8461E081
:104EC000711001C060E0882D0E94C018F80163874E
:104ED0007487858761E08C2D0E948E2FF801608792
:104EE0007187828788899989AA89BB89828B938BEC
:104EF000A48BB58B711018C091E08C149D04AE0486
:104F0000BF04C1F080E0892BF8018687DF91CF9143
:104F10001F910F91FF90EF90DF90CF90BF90AF90D7
:104F20009F908F907F90089591E18C149D04AE0422
:104F3000BF0441F780E2E7CFCF93DF93EC018E858A
:104F400085FD0DC0688579858A8541E00E94F91844
:104F50008E85807381608E87DF91CF9108956885FB
:104F600079858A8541E00E9408198E858073816069
:104F70008E87DF91CF910895CF93DF93FC01A385B6
:104F8000B4855C918785982F977021E030E001C04F
:104F9000220F9A95EAF7982F969596959695DF01A8
:104FA000A90FB11D5A969C915A9745854523E1F06A
:104FB000292B5A962C938F5F90898917E8F487875D
:104FC000448155816681778186899789A08DB18DCD
:104FD000840F951FA61FB71F84839583A683B7836D
:104FE00081E0DF91CF910895209529235A962C9343
:104FF0008F5F9089891718F3EF01CF010E949C27DA
:105000008E8588608E871092260281E080934E0202
:1050100080E0DF91CF910895CF93DF93FC01A385CA
:10502000B4859C9185858923E9F08685846086878F
:10503000878591E0980F9787803408F544815581E2
:105040006681778186899789A08DB18D840F951FA0
:10505000A61FB71F84839583A683B78381E0DF9162
:10506000CF910895868582FFE3CF17868CEB97E278
:1050700093838283CF01DF91CF910C94BC27EF0102
:10508000108ACF010E949C278E8588608E8710929F
:10509000260281E080934E0280E0DF91CF91089557
:1050A0001F93CF93DF93EC011889112369F14E858B
:1050B00045FD23C01F868CE098E29B838A838E89FE
:1050C0009F89A88DB98D880F991FAA1FBB1F880FB4
:1050D000991FAA1FBB1F4C815D816E817F81840F48
:1050E000951FA61FB71F8C839D83AE83BF8311E0DE
:1050F000812FDF91CF911F91089540716B857C8541
:105100008D850E94AA18D6CF0E949C278E85886024
:105110008E871092260281E080934E02812FDF91CC
:10512000CF911F910895FC0186898460868B10922F
:10513000260281E08093490244815581668177810E
:1051400080899189A289B389840F951FA61FB71FF3
:1051500084839583A683B78381E00895FC01389703
:10516000968990FF08C0608D678B9A7F9460968BBC
:10517000CF010E946A2080E00895FC01A085B185DE
:105180009C9182858923D1F0818D80958170C9F4AD
:10519000838D815031F1838F448155816681778180
:1051A00087859089A189B289840F951FA61FB71F93
:1051B00084839583A683B78381E00895818D817070
:1051C00039F388E099E29383828383899489A5895E
:1051D000B68984839583A683B783828D838F81E08C
:1051E0000895A789B08D56969C915697892F817006
:1051F00090FFE3CF648D57966C9357979A7F946096
:1052000056969C935697CD010E946A2080E008959F
:105210000F931F93FC01A085B1859C91048115819A
:10522000268137814385548565857685400F511FDA
:10523000621F731F8285892361F0818D8095817043
:1052400059F0448355836683778381E01F910F91E2
:105250000895818D8170A9F7438B548B658B768B74
:105260008DEB98E293838283CF011F910F910C9471
:10527000BD28CF93FC01C0816BEA79E28C2F0E949C
:105280000D2BFC01F894818D3389448955896689F9
:105290007894A085B1852C919285922321E009F420
:1052A00020E01F922F936F935F934F933F938695C8
:1052B00081701F928F931F92CF9380E396E09F930C
:1052C0008F930E9459358DB79EB70C960FB6F89400
:1052D0009EBF0FBE8DBFCF910895CF93FC01C081BB
:1052E0006CEE71E18C2F0E940D2BFC01F89480A1D3
:1052F00091A1A2A1B3A124A5468557856089718992
:1053000024FD04C07695679557954795841B950BAA
:10531000A60BB70BB7FF07C0B095A09590958195E8
:105320009F4FAF4FBF4F7894B054BF93AF939F93AD
:105330008F931F92CF9385E396E09F938F930E9464
:1053400059358DB79EB708960FB6F8949EBF0FBE1D
:105350008DBFCF9108950F931F93CF93DF93EC01EF
:105360004DE150E06BEA79E288810E94DE2A8C01EF
:1053700068858C810E94C018F801608771878287D8
:10538000DF91CF911F910F9108950F931F93CF93AA
:10539000DF938C016BEA79E2FC0180810E940D2B86
:1053A000EC010E942E3CF80184819581A681B78191
:1053B0008C839D83AE83BF8380859185A285B385D1
:1053C0008F87988BA98BBA8B84858A8F882361F10C
:1053D000F80140895189628973894B875C876D87A1
:1053E0007E8728E039E23B832A838B8F84899589E5
:1053F000A689B789892B8A2B8B2BA1F482E0898F10
:105400006AE87FE1F801808D0E940D2B988F8F8BC9
:10541000F801848D8C8FCE01DF91CF911F910F9178
:105420000C94803C83E0EBCF188E1F8A198EDF919D
:10543000CF911F910F9108950F931F93CF93DF93F7
:105440008C01EC01A897CE010E942E3C1C821D828B
:105450001E821F821A8A1B8A1C8A1D8A88A199A112
:10546000AAA1BBA12CA54E855F856889798924FDF9
:1054700004C07695679557954795841B950BA60BA9
:10548000B70BB7FD40C0B095A095909581959F4F03
:10549000AF4FBF4F88A399A3AAA3BBA31E861F86A5
:1054A000188A198A247128602CA76D8D7E8D8F8DA6
:1054B00040E00E94F9184CA544706A8D7B8D8C8D5C
:1054C0000E94F918D8011497ED91FC91119730972B
:1054D000A9F0409147029091480201C0F901208152
:1054E000318140839183F0934802E09347024E2F2D
:1054F0009F2F2115310591F71D921C92DF91CF91BD
:105500001F910F910895B095A095909581959F4F0B
:10551000AF4FBF4FB8CF0F931F93CF93DF938C0143
:105520006CEE71E1FC0180810E940D2BEC016AE8B8
:105530007FE1F80184810E940D2BBE01685D7F4FE1
:105540004FB7F8942AA53BA5232B89F42CE13AE226
:105550003BA72AA7FC012489358939A728A7758B81
:10556000648B4FBFDF91CF911F910F91089589E117
:105570000E94E53ECF93DF93EC0198814091370282
:10558000A0913802B09139020BC0FD0184E0989FD0
:10559000E00DF11D1124208131812617370741F0DC
:1055A0009F5F941790F380E090E0DF91CF91089592
:1055B000988382819381DF91CF910895CF93DF9378
:1055C00090913702891730F5C82FD0E0CC0FDD1F3E
:1055D000CC0FDD1FE0913802F0913902EC0FFD1F76
:1055E00080819181892BB1F480913F02909140029A
:1055F000892B81F471836083CA010E943635209122
:10560000380230913902C20FD31F9B838A83DF9106
:10561000CF9108958BE00E94E53E90913702891763
:1056200088F4E0913802F091390294E0899FE00D0E
:10563000F11D1124808191818617970719F48281C9
:10564000938108958CE00E94E53ECF92DF92EF9225
:10565000FF92CF93DF93C0913F02D09140022097F9
:10566000B9F121976E01E12CF12CA0913E02B0E03E
:105670002097D9F020E030E040E050E0BA0180917E
:105680003C0290913D02FC01E20FF31F4F5F5F4F20
:105690006F4F7F4F2A0F3B1F820F931F9183808391
:1056A0004C155D056E057F0550F380913C0290918D
:1056B0003D02CA9FF001CB9FF00DDA9FF00D11243F
:1056C000E80FF91F118210829093480280934702DD
:1056D000DF91CF91FF90EF90DF90CF900895FC0184
:1056E00013821282118210826F3F710509F07CF4DF
:1056F00080913F0290914002892B49F480913E02B3
:1057000090E08617970714F460933E0208950E9474
:10571000632F2FB7F8948091470290914802009729
:1057200049F0FC0140815181509348024093470267
:105730002FBF08958FE00E94E53E809127028823C5
:1057400029F0823011F010922702089582E00E9421
:10575000E53E88E00E94E53ECF92DF92EF92FF9215
:105760000F931F930E94E0309F938F937F936F93CB
:1057700001E010E020E030E0C0905302D0905402ED
:10578000E0905502F09056026C157D058E059F0540
:1057900018F000E010E0980180914F0290915002C3
:1057A000A0915102B0915202800F911FA21FB31F0E
:1057B000BF93AF939F938F938EE496E09F938F93C5
:1057C0000E9459358DB79EB70A960FB6F8949EBFC2
:1057D0000FBE8DBF1F910F91FF90EF90DF90CF9084
:1057E00008950E94E0309F938F937F936F9389E495
:1057F00096E09F938F930E9459350F900F900F90D2
:105800000F900F900F900895CF93DF93EC016EEE01
:105810007CE288810E940D2B6C8148855985FC01B2
:10582000238120FD06C0FC018081DF91CF910C9483
:105830005F1881819281DF91CF910C94AA1D2F92E4
:105840003F924F925F926F927F928F929F92AF9210
:10585000BF92CF92DF92EF92FF920F931F93CF935D
:10586000DF9300D000D0CDB7DEB78C012DB73EB7A7
:105870003D832C836EEE7CE2DC018C910E940D2B2B
:105880009A838983F801F481FB83D80118968D905F
:105890009C9019971C964D905D906D907C901F97F1
:1058A00040FC99C07694679457944794F801E08837
:1058B000F188C42CD12CFB810F2F10E0C8018C0D76
:1058C0009D1D2DB73EB7281B390B0FB6F8943EBF70
:1058D0000FBE2DBF8DB79EB701965C01A981BA811D
:1058E00013963C90A801B4010E940640B32DB170FC
:1058F000BE8330FE53C01501200E311E8101242DC0
:10590000A4016B81E981FA81818192810E94F81C56
:10591000C114D10409F453C0A6014E0D5F1DF1015D
:1059200020E030E0D7018D917D0180959081892321
:105930008083DA019D91AD01892B81932F5F3F4FC9
:105940002C153D057CF3BE81B11139C06B81640D0E
:10595000A501E981FA8180810E945F182C813D8137
:105960000FB6F8943EBF0FBE2DBF26960FB6F89423
:10597000DEBF0FBECDBFDF91CF911F910F91FF9082
:10598000EF90DF90CF90BF90AF909F908F907F90DF
:105990006F905F904F903F902F9008951501200ECB
:1059A000311E8101242DA4016B81E981FA8180815E
:1059B0000E94D517C114D10409F0AECFC7CF6B81B7
:1059C000640DA501A981BA8111968D919C911297C0
:1059D0000E94AA1DC3CF8CE10E94E53E44E050E046
:1059E0006EEE7CE2FC0180810C94DE2AAF92BF92C5
:1059F000CF92DF92EF92FF920F931F93CF93DF939B
:105A0000CDB7DEB77C01ADB6BEB6FC01C0806EEE90
:105A10007CE28C2D0E940D2BF7016481408551851D
:105A2000D4842DB73EB72D1931090FB6F8943EBF77
:105A30000FBE2DBFEDB7FEB731967F01FC0123816C
:105A4000870120FD2AC02D2DFC0180810E94D517E1
:105A5000FF92EF921F92DF921F92CF928CE196E01D
:105A60009F938F930E9459352DB73EB7285F3F4FC4
:105A70000FB6F8943EBF0FBE2DBF0FB6F894BEBE52
:105A80000FBEADBEDF91CF911F910F91FF90EF90B0
:105A9000DF90CF90BF90AF9008952D2D818192819E
:105AA0000E94F81CD5CF8F929F92AF92BF92FF9227
:105AB0000F931F93CF93DF938C01FC0184858F7725
:105AC000F82E6EEE7CE280810E940D2BEC01F80135
:105AD00084819581A681B781892B8A2B8B2BB1F587
